{
  "contractName": "CFP",
  "abi": [
    {
      "inputs": [
        {
          "internalType": "bytes32",
          "name": "callId_",
          "type": "bytes32"
        },
        {
          "internalType": "uint256",
          "name": "closingTime_",
          "type": "uint256"
        }
      ],
      "stateMutability": "nonpayable",
      "type": "constructor"
    },
    {
      "anonymous": false,
      "inputs": [
        {
          "indexed": true,
          "internalType": "bytes32",
          "name": "proposal",
          "type": "bytes32"
        },
        {
          "indexed": true,
          "internalType": "address",
          "name": "sender",
          "type": "address"
        },
        {
          "indexed": false,
          "internalType": "uint256",
          "name": "blockNumber",
          "type": "uint256"
        }
      ],
      "name": "ProposalRegistered",
      "type": "event"
    },
    {
      "inputs": [
        {
          "internalType": "bytes32",
          "name": "proposal",
          "type": "bytes32"
        }
      ],
      "name": "proposalData",
      "outputs": [
        {
          "components": [
            {
              "internalType": "address",
              "name": "sender",
              "type": "address"
            },
            {
              "internalType": "uint256",
              "name": "blockNumber",
              "type": "uint256"
            },
            {
              "internalType": "uint256",
              "name": "timestamp",
              "type": "uint256"
            }
          ],
          "internalType": "struct CFP.ProposalData",
          "name": "",
          "type": "tuple"
        }
      ],
      "stateMutability": "view",
      "type": "function"
    },
    {
      "inputs": [
        {
          "internalType": "uint256",
          "name": "index",
          "type": "uint256"
        }
      ],
      "name": "proposals",
      "outputs": [
        {
          "internalType": "bytes32",
          "name": "",
          "type": "bytes32"
        }
      ],
      "stateMutability": "view",
      "type": "function"
    },
    {
      "inputs": [],
      "name": "closingTime",
      "outputs": [
        {
          "internalType": "uint256",
          "name": "",
          "type": "uint256"
        }
      ],
      "stateMutability": "view",
      "type": "function"
    },
    {
      "inputs": [],
      "name": "callId",
      "outputs": [
        {
          "internalType": "bytes32",
          "name": "",
          "type": "bytes32"
        }
      ],
      "stateMutability": "view",
      "type": "function"
    },
    {
      "inputs": [],
      "name": "creator",
      "outputs": [
        {
          "internalType": "address",
          "name": "",
          "type": "address"
        }
      ],
      "stateMutability": "view",
      "type": "function"
    },
    {
      "inputs": [],
      "name": "proposalCount",
      "outputs": [
        {
          "internalType": "uint256",
          "name": "",
          "type": "uint256"
        }
      ],
      "stateMutability": "view",
      "type": "function"
    },
    {
      "inputs": [
        {
          "internalType": "bytes32",
          "name": "proposal",
          "type": "bytes32"
        }
      ],
      "name": "registerProposal",
      "outputs": [],
      "stateMutability": "nonpayable",
      "type": "function"
    },
    {
      "inputs": [
        {
          "internalType": "bytes32",
          "name": "proposal",
          "type": "bytes32"
        },
        {
          "internalType": "address",
          "name": "sender",
          "type": "address"
        }
      ],
      "name": "registerProposalFor",
      "outputs": [],
      "stateMutability": "nonpayable",
      "type": "function"
    },
    {
      "inputs": [
        {
          "internalType": "bytes32",
          "name": "proposal",
          "type": "bytes32"
        }
      ],
      "name": "proposalTimestamp",
      "outputs": [
        {
          "internalType": "uint256",
          "name": "",
          "type": "uint256"
        }
      ],
      "stateMutability": "view",
      "type": "function"
    }
  ],
  "bytecode": "0x60e06040523480156200001157600080fd5b5060405162000e4438038062000e44833981810160405281019062000037919062000143565b8042106200007c576040517f08c379a0000000000000000000000000000000000000000000000000000000008152600401620000739062000211565b60405180910390fd5b81608081815250508060a081815250503373ffffffffffffffffffffffffffffffffffffffff1660c08173ffffffffffffffffffffffffffffffffffffffff1681525050505062000233565b600080fd5b6000819050919050565b620000e281620000cd565b8114620000ee57600080fd5b50565b6000815190506200010281620000d7565b92915050565b6000819050919050565b6200011d8162000108565b81146200012957600080fd5b50565b6000815190506200013d8162000112565b92915050565b600080604083850312156200015d576200015c620000c8565b5b60006200016d85828601620000f1565b925050602062000180858286016200012c565b9150509250929050565b600082825260208201905092915050565b7f456c20636965727265206465206c6120636f6e766f6361746f726961206e6f2060008201527f707565646520657374617220656e20656c2070617361646f0000000000000000602082015250565b6000620001f96038836200018a565b915062000206826200019b565b604082019050919050565b600060208201905081810360008301526200022c81620001ea565b9050919050565b60805160a05160c051610bcc620002786000396000818161024b0152610418015260008181610292015281816102b801526104a6015260006105730152610bcc6000f3fe608060405234801561001057600080fd5b50600436106100935760003560e01c80635dcfbcc2116100665780635dcfbcc2146101345780636424e719146101505780639c9cbf9c14610180578063d955cb001461019c578063da35c664146101ba57610093565b8063013cf08b1461009857806302d05d3f146100c85780633696b787146100e65780634b6753bc14610116575b600080fd5b6100b260048036038101906100ad9190610733565b6101d8565b6040516100bf9190610779565b60405180910390f35b6100d0610247565b6040516100dd91906107d5565b60405180910390f35b61010060048036038101906100fb919061081c565b61026f565b60405161010d9190610858565b60405180910390f35b61011e61028e565b60405161012b9190610858565b60405180910390f35b61014e6004803603810190610149919061081c565b6102b6565b005b61016a6004803603810190610165919061081c565b610380565b60405161017791906108d3565b60405180910390f35b61019a6004803603810190610195919061091a565b610416565b005b6101a461056f565b6040516101b19190610779565b60405180910390f35b6101c2610597565b6040516101cf9190610858565b60405180910390f35b60006001805490508210610221576040517f08c379a0000000000000000000000000000000000000000000000000000000008152600401610218906109b7565b60405180910390fd5b60018281548110610235576102346109d7565b5b90600052602060002001549050919050565b60007f0000000000000000000000000000000000000000000000000000000000000000905090565b6000806000838152602001908152602001600020600201549050919050565b60007f0000000000000000000000000000000000000000000000000000000000000000905090565b7f0000000000000000000000000000000000000000000000000000000000000000421115610319576040517f08c379a000000000000000000000000000000000000000000000000000000000815260040161031090610a52565b60405180910390fd5b8060008060008381526020019081526020016000206002015414610372576040517f08c379a000000000000000000000000000000000000000000000000000000000815260040161036990610ae4565b60405180910390fd5b61037c82336105a4565b5050565b6103886106c1565b6000808381526020019081526020016000206040518060600160405290816000820160009054906101000a900473ffffffffffffffffffffffffffffffffffffffff1673ffffffffffffffffffffffffffffffffffffffff1673ffffffffffffffffffffffffffffffffffffffff168152602001600182015481526020016002820154815250509050919050565b7f000000000000000000000000000000000000000000000000000000000000000073ffffffffffffffffffffffffffffffffffffffff163373ffffffffffffffffffffffffffffffffffffffff16146104a4576040517f08c379a000000000000000000000000000000000000000000000000000000000815260040161049b90610b76565b60405180910390fd5b7f0000000000000000000000000000000000000000000000000000000000000000421115610507576040517f08c379a00000000000000000000000000000000000000000000000000000000081526004016104fe90610a52565b60405180910390fd5b8160008060008381526020019081526020016000206002015414610560576040517f08c379a000000000000000000000000000000000000000000000000000000000815260040161055790610ae4565b60405180910390fd5b61056a83836105a4565b505050565b60007f0000000000000000000000000000000000000000000000000000000000000000905090565b6000600180549050905090565b60405180606001604052808273ffffffffffffffffffffffffffffffffffffffff1681526020014381526020014281525060008084815260200190815260200160002060008201518160000160006101000a81548173ffffffffffffffffffffffffffffffffffffffff021916908373ffffffffffffffffffffffffffffffffffffffff160217905550602082015181600101556040820151816002015590505060018290806001815401808255809150506001900390600052602060002001600090919091909150558073ffffffffffffffffffffffffffffffffffffffff16827f1a26f048630a7f2b9229c19a042fe677bbbad402ecb8f3fa77f9c4a3f98cae94436040516106b59190610858565b60405180910390a35050565b6040518060600160405280600073ffffffffffffffffffffffffffffffffffffffff16815260200160008152602001600081525090565b600080fd5b6000819050919050565b610710816106fd565b811461071b57600080fd5b50565b60008135905061072d81610707565b92915050565b600060208284031215610749576107486106f8565b5b60006107578482850161071e565b91505092915050565b6000819050919050565b61077381610760565b82525050565b600060208201905061078e600083018461076a565b92915050565b600073ffffffffffffffffffffffffffffffffffffffff82169050919050565b60006107bf82610794565b9050919050565b6107cf816107b4565b82525050565b60006020820190506107ea60008301846107c6565b92915050565b6107f981610760565b811461080457600080fd5b50565b600081359050610816816107f0565b92915050565b600060208284031215610832576108316106f8565b5b600061084084828501610807565b91505092915050565b610852816106fd565b82525050565b600060208201905061086d6000830184610849565b92915050565b61087c816107b4565b82525050565b61088b816106fd565b82525050565b6060820160008201516108a76000850182610873565b5060208201516108ba6020850182610882565b5060408201516108cd6040850182610882565b50505050565b60006060820190506108e86000830184610891565b92915050565b6108f7816107b4565b811461090257600080fd5b50565b600081359050610914816108ee565b92915050565b60008060408385031215610931576109306106f8565b5b600061093f85828601610807565b925050602061095085828601610905565b9150509250929050565b600082825260208201905092915050565b7f496e646578206f7574206f6620626f756e647300000000000000000000000000600082015250565b60006109a160138361095a565b91506109ac8261096b565b602082019050919050565b600060208201905081810360008301526109d081610994565b9050919050565b7f4e487b7100000000000000000000000000000000000000000000000000000000600052603260045260246000fd5b7f436f6e766f6361746f7269612063657272616461000000000000000000000000600082015250565b6000610a3c60148361095a565b9150610a4782610a06565b602082019050919050565b60006020820190508181036000830152610a6b81610a2f565b9050919050565b7f4c612070726f707565737461207961206861207369646f20726567697374726160008201527f6461000000000000000000000000000000000000000000000000000000000000602082015250565b6000610ace60228361095a565b9150610ad982610a72565b604082019050919050565b60006020820190508181036000830152610afd81610ac1565b9050919050565b7f536f6c6f20656c2063726561646f72207075656465206861636572206573746160008201527f206c6c616d616461000000000000000000000000000000000000000000000000602082015250565b6000610b6060288361095a565b9150610b6b82610b04565b604082019050919050565b60006020820190508181036000830152610b8f81610b53565b905091905056fea2646970667358221220a09ec3cfef1361722ad37ce0919844e622d81aa4d069d68b0e6c293c5657918064736f6c63430008130033",
  "immutableReferences": {
    "26": [
      {
        "length": 32,
        "start": 1395
      }
    ],
    "28": [
      {
        "length": 32,
        "start": 658
      },
      {
        "length": 32,
        "start": 696
      },
      {
        "length": 32,
        "start": 1190
      }
    ],
    "30": [
      {
        "length": 32,
        "start": 587
      },
      {
        "length": 32,
        "start": 1048
      }
    ]
  },
  "source": "//SPDX-License-Identifier: MIT\r\npragma solidity ^0.8.19;\r\n\r\ncontract CFP {\r\n    // Evento que se emite cuando alguien registra una propuesta\r\n    event ProposalRegistered(\r\n        bytes32 indexed proposal,\r\n        address indexed sender,\r\n        uint256 blockNumber\r\n    );\r\n\r\n    // Estructura que representa una propuesta\r\n    struct ProposalData {\r\n        address sender;\r\n        uint256 blockNumber;\r\n        uint256 timestamp;\r\n    }\r\n\r\n    // Variables de estado\r\n    mapping(bytes32 => ProposalData) private _proposalsData;\r\n    bytes32[] private _proposals;\r\n    bytes32 private immutable _callId;\r\n    uint256 private immutable _closingTime;\r\n    address private immutable _creator;\r\n\r\n    // Modifiers\r\n    modifier onlyCreator() {\r\n        require(\r\n            msg.sender == _creator,\r\n            \"Solo el creador puede hacer esta llamada\"\r\n        );\r\n        _;\r\n    }\r\n\r\n    modifier beforeClosing() {\r\n        require(block.timestamp <= _closingTime, \"Convocatoria cerrada\");\r\n        _;\r\n    }\r\n\r\n    modifier proposalNotRegistered(bytes32 proposal) {\r\n        require(\r\n            _proposalsData[proposal].timestamp == 0,\r\n            \"La propuesta ya ha sido registrada\"\r\n        );\r\n        _;\r\n    }\r\n\r\n    // Devuelve los datos asociados con una propuesta\r\n    function proposalData(\r\n        bytes32 proposal\r\n    ) public view returns (ProposalData memory) {\r\n        return _proposalsData[proposal];\r\n    }\r\n\r\n    // Devuelve la propuesta que est en la posicin `index` de la lista de propuestas registradas\r\n    function proposals(uint index) public view returns (bytes32) {\r\n        require(index < _proposals.length, \"Index out of bounds\");\r\n        return _proposals[index];\r\n    }\r\n\r\n    // Timestamp del cierre de la recepcin de propuestas\r\n    function closingTime() public view returns (uint256) {\r\n        return _closingTime;\r\n    }\r\n\r\n    // Identificador de este llamado\r\n    function callId() public view returns (bytes32) {\r\n        return _callId;\r\n    }\r\n\r\n    // Devuelve al creador del llamado\r\n    function creator() public view returns (address) {\r\n        return _creator;\r\n    }\r\n\r\n    /** Construye un llamado con un identificador y un tiempo de cierre.\r\n     *  Si el `timestamp` del bloque actual es mayor o igual al tiempo de cierre especificado,\r\n     *  revierte con el mensaje \"El cierre de la convocatoria no puede estar en el pasado\".\r\n     */\r\n    constructor(bytes32 callId_, uint256 closingTime_) {\r\n        require(\r\n            block.timestamp < closingTime_,\r\n            \"El cierre de la convocatoria no puede estar en el pasado\"\r\n        );\r\n        _callId = callId_;\r\n        _closingTime = closingTime_;\r\n        _creator = msg.sender;\r\n    }\r\n\r\n    // Devuelve la cantidad total de propuestas registradas\r\n    function proposalCount() public view returns (uint256) {\r\n        return _proposals.length;\r\n    }\r\n\r\n    /** Permite registrar una propuesta espec.\r\n     *  Registra al emisor del mensaje como emisor de la propuesta.\r\n     *  Si el timestamp del bloque actual es mayor que el del cierre del llamado,\r\n     *  revierte con el error \"Convocatoria cerrada\"\r\n     *  Si ya se ha registrado una propuesta igual, revierte con el mensaje\r\n     *  \"La propuesta ya ha sido registrada\"\r\n     *  Emite el evento `ProposalRegistered`\r\n     */\r\n    function registerProposal(\r\n        bytes32 proposal\r\n    ) public beforeClosing proposalNotRegistered(proposal) {\r\n        _registerProposal(proposal, msg.sender);\r\n    }\r\n\r\n    /** Permite registrar una propuesta especificando un emisor.\r\n     *  Slo puede ser ejecutada por el creador del llamado. Si no es as, revierte\r\n     *  con el mensaje \"Solo el creador puede hacer esta llamada\"\r\n     *  Si el timestamp del bloque actual es mayor que el del cierre del llamado,\r\n     *  revierte con el error \"Convocatoria cerrada\"\r\n     *  Si ya se ha registrado una propuesta igual, revierte con el mensaje\r\n     *  \"La propuesta ya ha sido registrada\"\r\n     *  Emite el evento `ProposalRegistered`\r\n     */\r\n    function registerProposalFor(\r\n        bytes32 proposal,\r\n        address sender\r\n    ) public onlyCreator beforeClosing proposalNotRegistered(proposal) {\r\n        _registerProposal(proposal, sender);\r\n    }\r\n\r\n    // Funcin interna que registra una propuesta\r\n    function _registerProposal(bytes32 proposal, address sender) private {\r\n        _proposalsData[proposal] = ProposalData({\r\n            sender: sender,\r\n            blockNumber: block.number,\r\n            timestamp: block.timestamp\r\n        });\r\n\r\n        _proposals.push(proposal);\r\n        emit ProposalRegistered(proposal, sender, block.number);\r\n    }\r\n\r\n    // Devuelve el timestamp en que se registr una propuesta\r\n    function proposalTimestamp(bytes32 proposal) public view returns (uint256) {\r\n        return _proposalsData[proposal].timestamp;\r\n    }\r\n}\r\n",
  "sourcePath": "C:\\Users\\Admin\\Desktop\\Blockchain\\2025\\TP\\10\\contracts\\contracts\\CFP.sol",
  "compiler": {
    "name": "solc",
    "version": "0.8.19+commit.7dd6d404.Emscripten.clang"
  },
  "schemaVersion": "3.4.16",
  "updatedAt": "2025-06-05T09:42:53.322Z",
  "devdoc": {
    "kind": "dev",
    "methods": {},
    "version": 1
  },
  "userdoc": {
    "kind": "user",
    "methods": {
      "constructor": {
        "notice": "Construye un llamado con un identificador y un tiempo de cierre.  Si el `timestamp` del bloque actual es mayor o igual al tiempo de cierre especificado,  revierte con el mensaje \"El cierre de la convocatoria no puede estar en el pasado\"."
      },
      "registerProposal(bytes32)": {
        "notice": "Permite registrar una propuesta espec.  Registra al emisor del mensaje como emisor de la propuesta.  Si el timestamp del bloque actual es mayor que el del cierre del llamado,  revierte con el error \"Convocatoria cerrada\"  Si ya se ha registrado una propuesta igual, revierte con el mensaje  \"La propuesta ya ha sido registrada\"  Emite el evento `ProposalRegistered`"
      },
      "registerProposalFor(bytes32,address)": {
        "notice": "Permite registrar una propuesta especificando un emisor.  Slo puede ser ejecutada por el creador del llamado. Si no es as, revierte  con el mensaje \"Solo el creador puede hacer esta llamada\"  Si el timestamp del bloque actual es mayor que el del cierre del llamado,  revierte con el error \"Convocatoria cerrada\"  Si ya se ha registrado una propuesta igual, revierte con el mensaje  \"La propuesta ya ha sido registrada\"  Emite el evento `ProposalRegistered`"
      }
    },
    "version": 1
  }
}