{
  "contractName": "CFPFactory",
  "abi": [
    {
      "inputs": [],
      "stateMutability": "nonpayable",
      "type": "constructor"
    },
    {
      "anonymous": false,
      "inputs": [
        {
          "indexed": true,
          "internalType": "address",
          "name": "account",
          "type": "address"
        }
      ],
      "name": "AccountAuthorized",
      "type": "event"
    },
    {
      "anonymous": false,
      "inputs": [
        {
          "indexed": true,
          "internalType": "address",
          "name": "account",
          "type": "address"
        }
      ],
      "name": "AccountRegistered",
      "type": "event"
    },
    {
      "anonymous": false,
      "inputs": [
        {
          "indexed": true,
          "internalType": "address",
          "name": "account",
          "type": "address"
        }
      ],
      "name": "AccountUnauthorized",
      "type": "event"
    },
    {
      "anonymous": false,
      "inputs": [
        {
          "indexed": true,
          "internalType": "address",
          "name": "creator",
          "type": "address"
        },
        {
          "indexed": true,
          "internalType": "bytes32",
          "name": "callId",
          "type": "bytes32"
        },
        {
          "indexed": false,
          "internalType": "contract CFP",
          "name": "cfp",
          "type": "address"
        }
      ],
      "name": "CFPCreated",
      "type": "event"
    },
    {
      "inputs": [],
      "name": "llamadosRegistrar",
      "outputs": [
        {
          "internalType": "contract LlamadosRegistrar",
          "name": "",
          "type": "address"
        }
      ],
      "stateMutability": "view",
      "type": "function",
      "constant": true
    },
    {
      "inputs": [
        {
          "internalType": "address",
          "name": "_llamadosRegistrar",
          "type": "address"
        }
      ],
      "name": "setLlamadosRegistrar",
      "outputs": [],
      "stateMutability": "nonpayable",
      "type": "function"
    },
    {
      "inputs": [],
      "name": "owner",
      "outputs": [
        {
          "internalType": "address",
          "name": "",
          "type": "address"
        }
      ],
      "stateMutability": "view",
      "type": "function",
      "constant": true
    },
    {
      "inputs": [
        {
          "internalType": "bytes32",
          "name": "callId",
          "type": "bytes32"
        }
      ],
      "name": "calls",
      "outputs": [
        {
          "components": [
            {
              "internalType": "address",
              "name": "creator",
              "type": "address"
            },
            {
              "internalType": "contract CFP",
              "name": "cfp",
              "type": "address"
            }
          ],
          "internalType": "struct CFPFactory.CallForProposals",
          "name": "",
          "type": "tuple"
        }
      ],
      "stateMutability": "view",
      "type": "function",
      "constant": true
    },
    {
      "inputs": [
        {
          "internalType": "uint256",
          "name": "index",
          "type": "uint256"
        }
      ],
      "name": "creators",
      "outputs": [
        {
          "internalType": "address",
          "name": "",
          "type": "address"
        }
      ],
      "stateMutability": "view",
      "type": "function",
      "constant": true
    },
    {
      "inputs": [
        {
          "internalType": "bytes32",
          "name": "callId",
          "type": "bytes32"
        },
        {
          "internalType": "uint256",
          "name": "timestamp",
          "type": "uint256"
        }
      ],
      "name": "create",
      "outputs": [
        {
          "internalType": "contract CFP",
          "name": "",
          "type": "address"
        }
      ],
      "stateMutability": "nonpayable",
      "type": "function"
    },
    {
      "inputs": [
        {
          "internalType": "bytes32",
          "name": "callId",
          "type": "bytes32"
        },
        {
          "internalType": "uint256",
          "name": "timestamp",
          "type": "uint256"
        }
      ],
      "name": "createWithENS",
      "outputs": [
        {
          "internalType": "contract CFP",
          "name": "",
          "type": "address"
        }
      ],
      "stateMutability": "nonpayable",
      "type": "function"
    },
    {
      "inputs": [
        {
          "internalType": "bytes32",
          "name": "callId",
          "type": "bytes32"
        },
        {
          "internalType": "uint256",
          "name": "timestamp",
          "type": "uint256"
        },
        {
          "internalType": "address",
          "name": "creator",
          "type": "address"
        }
      ],
      "name": "createFor",
      "outputs": [
        {
          "internalType": "contract CFP",
          "name": "",
          "type": "address"
        }
      ],
      "stateMutability": "nonpayable",
      "type": "function"
    },
    {
      "inputs": [
        {
          "internalType": "bytes32",
          "name": "callId",
          "type": "bytes32"
        },
        {
          "internalType": "uint256",
          "name": "timestamp",
          "type": "uint256"
        },
        {
          "internalType": "address",
          "name": "creator",
          "type": "address"
        }
      ],
      "name": "createForWithENS",
      "outputs": [
        {
          "internalType": "contract CFP",
          "name": "",
          "type": "address"
        }
      ],
      "stateMutability": "nonpayable",
      "type": "function"
    },
    {
      "inputs": [],
      "name": "creatorsCount",
      "outputs": [
        {
          "internalType": "uint256",
          "name": "",
          "type": "uint256"
        }
      ],
      "stateMutability": "view",
      "type": "function",
      "constant": true
    },
    {
      "inputs": [
        {
          "internalType": "address",
          "name": "creator",
          "type": "address"
        },
        {
          "internalType": "uint256",
          "name": "index",
          "type": "uint256"
        }
      ],
      "name": "createdBy",
      "outputs": [
        {
          "internalType": "bytes32",
          "name": "",
          "type": "bytes32"
        }
      ],
      "stateMutability": "view",
      "type": "function",
      "constant": true
    },
    {
      "inputs": [
        {
          "internalType": "address",
          "name": "creator",
          "type": "address"
        }
      ],
      "name": "createdByCount",
      "outputs": [
        {
          "internalType": "uint256",
          "name": "",
          "type": "uint256"
        }
      ],
      "stateMutability": "view",
      "type": "function",
      "constant": true
    },
    {
      "inputs": [
        {
          "internalType": "bytes32",
          "name": "callId",
          "type": "bytes32"
        }
      ],
      "name": "getCallData",
      "outputs": [
        {
          "internalType": "address",
          "name": "creator",
          "type": "address"
        },
        {
          "internalType": "address",
          "name": "cfpAddress",
          "type": "address"
        }
      ],
      "stateMutability": "view",
      "type": "function",
      "constant": true
    },
    {
      "inputs": [
        {
          "internalType": "bytes32",
          "name": "callId",
          "type": "bytes32"
        },
        {
          "internalType": "bytes32",
          "name": "proposal",
          "type": "bytes32"
        }
      ],
      "name": "registerProposal",
      "outputs": [],
      "stateMutability": "nonpayable",
      "type": "function"
    },
    {
      "inputs": [],
      "name": "register",
      "outputs": [],
      "stateMutability": "nonpayable",
      "type": "function"
    },
    {
      "inputs": [
        {
          "internalType": "address",
          "name": "creator",
          "type": "address"
        }
      ],
      "name": "authorize",
      "outputs": [],
      "stateMutability": "nonpayable",
      "type": "function"
    },
    {
      "inputs": [
        {
          "internalType": "address",
          "name": "creator",
          "type": "address"
        }
      ],
      "name": "unauthorize",
      "outputs": [],
      "stateMutability": "nonpayable",
      "type": "function"
    },
    {
      "inputs": [],
      "name": "getAllPending",
      "outputs": [
        {
          "internalType": "address[]",
          "name": "",
          "type": "address[]"
        }
      ],
      "stateMutability": "view",
      "type": "function",
      "constant": true
    },
    {
      "inputs": [
        {
          "internalType": "uint256",
          "name": "index",
          "type": "uint256"
        }
      ],
      "name": "getPending",
      "outputs": [
        {
          "internalType": "address",
          "name": "",
          "type": "address"
        }
      ],
      "stateMutability": "view",
      "type": "function",
      "constant": true
    },
    {
      "inputs": [],
      "name": "pendingCount",
      "outputs": [
        {
          "internalType": "uint256",
          "name": "",
          "type": "uint256"
        }
      ],
      "stateMutability": "view",
      "type": "function",
      "constant": true
    },
    {
      "inputs": [
        {
          "internalType": "address",
          "name": "account",
          "type": "address"
        }
      ],
      "name": "isRegistered",
      "outputs": [
        {
          "internalType": "bool",
          "name": "",
          "type": "bool"
        }
      ],
      "stateMutability": "view",
      "type": "function",
      "constant": true
    },
    {
      "inputs": [
        {
          "internalType": "address",
          "name": "account",
          "type": "address"
        }
      ],
      "name": "isAuthorized",
      "outputs": [
        {
          "internalType": "bool",
          "name": "",
          "type": "bool"
        }
      ],
      "stateMutability": "view",
      "type": "function",
      "constant": true
    }
  ],
  "bytecode": "0x60a060405234801561001057600080fd5b503373ffffffffffffffffffffffffffffffffffffffff1660808173ffffffffffffffffffffffffffffffffffffffff1681525050608051613f686100986000396000818161052801528181610fc9015281816110f301528181611299015281816113ea015281816118eb01528181611a6001528181611afc0152611ccb0152613f686000f3fe60806040523480156200001157600080fd5b5060043610620001605760003560e01c8063b711cf2811620000c9578063e46bda541162000087578063e46bda541462000432578063ea70b4af1462000454578063f0b37c041462000476578063f112ba721462000496578063f80364c714620004b8578063fe9fbb8014620004ee5762000160565b8063b711cf28146200033a578063c3c5a5471462000370578063cd53d08e14620003a6578063cff1026514620003dc578063d6d12e8e14620004125762000160565b806375428615116200012357806375428615146200021f57806384f89a9314620002565780638da5cb5b146200028c578063a042c13214620002ae578063ab4f48c414620002e4578063b6a5d7de146200031a5762000160565b80631a93f20414620001655780631aa3a008146200019b5780636068c07114620001a75780636a87d80514620001dd5780637036af7114620001fd575b600080fd5b6200018360048036038101906200017d91906200264d565b62000524565b60405162000192919062002714565b60405180910390f35b620001a5620007ce565b005b620001c56004803603810190620001bf919062002731565b620009e8565b604051620001d4919062002714565b60405180910390f35b620001fb6004803603810190620001f5919062002778565b62000cbd565b005b6200020762000e12565b604051620002169190620027e4565b60405180910390f35b6200023d600480360381019062000237919062002801565b62000e36565b6040516200024d92919062002844565b60405180910390f35b6200027460048036038101906200026e919062002871565b62000fc5565b604051620002839190620028a3565b60405180910390f35b62000296620010ef565b604051620002a59190620028a3565b60405180910390f35b620002cc6004803603810190620002c6919062002731565b62001117565b604051620002db919062002714565b60405180910390f35b620003026004803603810190620002fc91906200264d565b62001295565b60405162000311919062002714565b60405180910390f35b620003386004803603810190620003329190620028c0565b620013e8565b005b620003586004803603810190620003529190620028c0565b620016a6565b60405162000367919062002903565b60405180910390f35b6200038e6004803603810190620003889190620028c0565b620016f2565b6040516200039d91906200293d565b60405180910390f35b620003c46004803603810190620003be919062002871565b62001775565b604051620003d39190620028a3565b60405180910390f35b620003fa6004803603810190620003f4919062002801565b6200180e565b604051620004099190620029af565b60405180910390f35b6200043060048036038101906200042a9190620028c0565b620018e9565b005b6200043c62001a4f565b6040516200044b919062002903565b60405180910390f35b6200045e62001a5c565b6040516200046d919062002903565b60405180910390f35b6200049460048036038101906200048e9190620028c0565b62001afa565b005b620004a062001cc7565b604051620004af919062002a89565b60405180910390f35b620004d66004803603810190620004d0919062002aad565b62001de8565b604051620004e5919062002b05565b60405180910390f35b6200050c6004803603810190620005069190620028c0565b62001edc565b6040516200051b91906200293d565b60405180910390f35b60007f000000000000000000000000000000000000000000000000000000000000000073ffffffffffffffffffffffffffffffffffffffff163373ffffffffffffffffffffffffffffffffffffffff1614620005b7576040517f08c379a0000000000000000000000000000000000000000000000000000000008152600401620005ae9062002ba9565b60405180910390fd5b83600073ffffffffffffffffffffffffffffffffffffffff166003600083815260200190815260200160002060000160009054906101000a900473ffffffffffffffffffffffffffffffffffffffff1673ffffffffffffffffffffffffffffffffffffffff161462000660576040517f08c379a0000000000000000000000000000000000000000000000000000000008152600401620006579062002c1b565b60405180910390fd5b600073ffffffffffffffffffffffffffffffffffffffff1660008054906101000a900473ffffffffffffffffffffffffffffffffffffffff1673ffffffffffffffffffffffffffffffffffffffff1603620006f2576040517f08c379a0000000000000000000000000000000000000000000000000000000008152600401620006e99062002c8d565b60405180910390fd5b60006200070186868662001f5e565b905060008660405160200162000718919062002cd4565b60405160208183030381529060405280519060200120905060008054906101000a900473ffffffffffffffffffffffffffffffffffffffff1673ffffffffffffffffffffffffffffffffffffffff1663d22057a982876040518363ffffffff1660e01b81526004016200078d92919062002cf1565b600060405180830381600087803b158015620007a857600080fd5b505af1158015620007bd573d6000803e3d6000fd5b505050508193505050509392505050565b3360006002811115620007e657620007e562002d1e565b5b600460008373ffffffffffffffffffffffffffffffffffffffff1673ffffffffffffffffffffffffffffffffffffffff16815260200190815260200160002060009054906101000a900460ff16600281111562000848576200084762002d1e565b5b146200088b576040517f08c379a0000000000000000000000000000000000000000000000000000000008152600401620008829062002d9d565b60405180910390fd5b6001600460003373ffffffffffffffffffffffffffffffffffffffff1673ffffffffffffffffffffffffffffffffffffffff16815260200190815260200160002060006101000a81548160ff02191690836002811115620008f157620008f062002d1e565b5b0217905550600180549050600660003373ffffffffffffffffffffffffffffffffffffffff1673ffffffffffffffffffffffffffffffffffffffff168152602001908152602001600020819055506001339080600181540180825580915050600190039060005260206000200160009091909190916101000a81548173ffffffffffffffffffffffffffffffffffffffff021916908373ffffffffffffffffffffffffffffffffffffffff1602179055503373ffffffffffffffffffffffffffffffffffffffff167fcd822dc9688e20acea68724a2fbcfe4f3e526d20ecaa37b18fe3047ab377d6a560405160405180910390a250565b60003360028081111562000a015762000a0062002d1e565b5b600460008373ffffffffffffffffffffffffffffffffffffffff1673ffffffffffffffffffffffffffffffffffffffff16815260200190815260200160002060009054906101000a900460ff16600281111562000a635762000a6262002d1e565b5b1462000aa6576040517f08c379a000000000000000000000000000000000000000000000000000000000815260040162000a9d9062002e0f565b60405180910390fd5b83600073ffffffffffffffffffffffffffffffffffffffff166003600083815260200190815260200160002060000160009054906101000a900473ffffffffffffffffffffffffffffffffffffffff1673ffffffffffffffffffffffffffffffffffffffff161462000b4f576040517f08c379a000000000000000000000000000000000000000000000000000000000815260040162000b469062002c1b565b60405180910390fd5b600073ffffffffffffffffffffffffffffffffffffffff1660008054906101000a900473ffffffffffffffffffffffffffffffffffffffff1673ffffffffffffffffffffffffffffffffffffffff160362000be1576040517f08c379a000000000000000000000000000000000000000000000000000000000815260040162000bd89062002c8d565b60405180910390fd5b600062000bf086863362001f5e565b905060008660405160200162000c07919062002cd4565b60405160208183030381529060405280519060200120905060008054906101000a900473ffffffffffffffffffffffffffffffffffffffff1673ffffffffffffffffffffffffffffffffffffffff1663d22057a982336040518363ffffffff1660e01b815260040162000c7c92919062002cf1565b600060405180830381600087803b15801562000c9757600080fd5b505af115801562000cac573d6000803e3d6000fd5b505050508194505050505092915050565b81600073ffffffffffffffffffffffffffffffffffffffff166003600083815260200190815260200160002060000160009054906101000a900473ffffffffffffffffffffffffffffffffffffffff1673ffffffffffffffffffffffffffffffffffffffff160362000d66576040517f08c379a000000000000000000000000000000000000000000000000000000000815260040162000d5d9062002e81565b60405180910390fd5b6003600084815260200190815260200160002060010160009054906101000a900473ffffffffffffffffffffffffffffffffffffffff1673ffffffffffffffffffffffffffffffffffffffff16639c9cbf9c83336040518363ffffffff1660e01b815260040162000dd992919062002cf1565b600060405180830381600087803b15801562000df457600080fd5b505af115801562000e09573d6000803e3d6000fd5b50505050505050565b60008054906101000a900473ffffffffffffffffffffffffffffffffffffffff1681565b60008082600073ffffffffffffffffffffffffffffffffffffffff166003600083815260200190815260200160002060000160009054906101000a900473ffffffffffffffffffffffffffffffffffffffff1673ffffffffffffffffffffffffffffffffffffffff160362000ee2576040517f08c379a000000000000000000000000000000000000000000000000000000000815260040162000ed99062002e81565b60405180910390fd5b6000600360008681526020019081526020016000206040518060400160405290816000820160009054906101000a900473ffffffffffffffffffffffffffffffffffffffff1673ffffffffffffffffffffffffffffffffffffffff1673ffffffffffffffffffffffffffffffffffffffff1681526020016001820160009054906101000a900473ffffffffffffffffffffffffffffffffffffffff1673ffffffffffffffffffffffffffffffffffffffff1673ffffffffffffffffffffffffffffffffffffffff1681525050905080600001518160200151935093505050915091565b60007f000000000000000000000000000000000000000000000000000000000000000073ffffffffffffffffffffffffffffffffffffffff163373ffffffffffffffffffffffffffffffffffffffff161462001058576040517f08c379a00000000000000000000000000000000000000000000000000000000081526004016200104f9062002ba9565b60405180910390fd5b81600180549050808210620010a4576040517f08c379a00000000000000000000000000000000000000000000000000000000081526004016200109b9062002ef3565b60405180910390fd5b60018481548110620010bb57620010ba62002f15565b5b9060005260206000200160009054906101000a900473ffffffffffffffffffffffffffffffffffffffff1692505050919050565b60007f0000000000000000000000000000000000000000000000000000000000000000905090565b60003360028081111562001130576200112f62002d1e565b5b600460008373ffffffffffffffffffffffffffffffffffffffff1673ffffffffffffffffffffffffffffffffffffffff16815260200190815260200160002060009054906101000a900460ff16600281111562001192576200119162002d1e565b5b14620011d5576040517f08c379a0000000000000000000000000000000000000000000000000000000008152600401620011cc9062002e0f565b60405180910390fd5b83600073ffffffffffffffffffffffffffffffffffffffff166003600083815260200190815260200160002060000160009054906101000a900473ffffffffffffffffffffffffffffffffffffffff1673ffffffffffffffffffffffffffffffffffffffff16146200127e576040517f08c379a0000000000000000000000000000000000000000000000000000000008152600401620012759062002c1b565b60405180910390fd5b6200128b85853362001f5e565b9250505092915050565b60007f000000000000000000000000000000000000000000000000000000000000000073ffffffffffffffffffffffffffffffffffffffff163373ffffffffffffffffffffffffffffffffffffffff161462001328576040517f08c379a00000000000000000000000000000000000000000000000000000000081526004016200131f9062002ba9565b60405180910390fd5b83600073ffffffffffffffffffffffffffffffffffffffff166003600083815260200190815260200160002060000160009054906101000a900473ffffffffffffffffffffffffffffffffffffffff1673ffffffffffffffffffffffffffffffffffffffff1614620013d1576040517f08c379a0000000000000000000000000000000000000000000000000000000008152600401620013c89062002c1b565b60405180910390fd5b620013de85858562001f5e565b9150509392505050565b7f000000000000000000000000000000000000000000000000000000000000000073ffffffffffffffffffffffffffffffffffffffff163373ffffffffffffffffffffffffffffffffffffffff161462001479576040517f08c379a0000000000000000000000000000000000000000000000000000000008152600401620014709062002ba9565b60405180910390fd5b6000600281111562001490576200148f62002d1e565b5b600460008373ffffffffffffffffffffffffffffffffffffffff1673ffffffffffffffffffffffffffffffffffffffff16815260200190815260200160002060009054906101000a900460ff166002811115620014f257620014f162002d1e565b5b0362001569576002600460008373ffffffffffffffffffffffffffffffffffffffff1673ffffffffffffffffffffffffffffffffffffffff16815260200190815260200160002060006101000a81548160ff021916908360028111156200155e576200155d62002d1e565b5b021790555062001660565b6001600281111562001580576200157f62002d1e565b5b600460008373ffffffffffffffffffffffffffffffffffffffff1673ffffffffffffffffffffffffffffffffffffffff16815260200190815260200160002060009054906101000a900460ff166002811115620015e257620015e162002d1e565b5b036200165f57620015f3816200227c565b6002600460008373ffffffffffffffffffffffffffffffffffffffff1673ffffffffffffffffffffffffffffffffffffffff16815260200190815260200160002060006101000a81548160ff0219169083600281111562001659576200165862002d1e565b5b02179055505b5b8073ffffffffffffffffffffffffffffffffffffffff167f10e4428e2647e1f920c2b46454982af8924babe9f09c0c629254a87a3b06d9ab60405160405180910390a250565b6000600560008373ffffffffffffffffffffffffffffffffffffffff1673ffffffffffffffffffffffffffffffffffffffff168152602001908152602001600020805490509050919050565b60008060028111156200170a576200170962002d1e565b5b600460008473ffffffffffffffffffffffffffffffffffffffff1673ffffffffffffffffffffffffffffffffffffffff16815260200190815260200160002060009054906101000a900460ff1660028111156200176c576200176b62002d1e565b5b14159050919050565b600081600280549050808210620017c3576040517f08c379a0000000000000000000000000000000000000000000000000000000008152600401620017ba9062002ef3565b60405180910390fd5b60028481548110620017da57620017d962002f15565b5b9060005260206000200160009054906101000a900473ffffffffffffffffffffffffffffffffffffffff1692505050919050565b6200181862002519565b600360008381526020019081526020016000206040518060400160405290816000820160009054906101000a900473ffffffffffffffffffffffffffffffffffffffff1673ffffffffffffffffffffffffffffffffffffffff1673ffffffffffffffffffffffffffffffffffffffff1681526020016001820160009054906101000a900473ffffffffffffffffffffffffffffffffffffffff1673ffffffffffffffffffffffffffffffffffffffff1673ffffffffffffffffffffffffffffffffffffffff16815250509050919050565b7f000000000000000000000000000000000000000000000000000000000000000073ffffffffffffffffffffffffffffffffffffffff163373ffffffffffffffffffffffffffffffffffffffff16146200197a576040517f08c379a0000000000000000000000000000000000000000000000000000000008152600401620019719062002ba9565b60405180910390fd5b600073ffffffffffffffffffffffffffffffffffffffff1660008054906101000a900473ffffffffffffffffffffffffffffffffffffffff1673ffffffffffffffffffffffffffffffffffffffff161462001a0c576040517f08c379a000000000000000000000000000000000000000000000000000000000815260040162001a039062002f94565b60405180910390fd5b806000806101000a81548173ffffffffffffffffffffffffffffffffffffffff021916908373ffffffffffffffffffffffffffffffffffffffff16021790555050565b6000600280549050905090565b60007f000000000000000000000000000000000000000000000000000000000000000073ffffffffffffffffffffffffffffffffffffffff163373ffffffffffffffffffffffffffffffffffffffff161462001aef576040517f08c379a000000000000000000000000000000000000000000000000000000000815260040162001ae69062002ba9565b60405180910390fd5b600180549050905090565b7f000000000000000000000000000000000000000000000000000000000000000073ffffffffffffffffffffffffffffffffffffffff163373ffffffffffffffffffffffffffffffffffffffff161462001b8b576040517f08c379a000000000000000000000000000000000000000000000000000000000815260040162001b829062002ba9565b60405180910390fd5b6001600281111562001ba25762001ba162002d1e565b5b600460008373ffffffffffffffffffffffffffffffffffffffff1673ffffffffffffffffffffffffffffffffffffffff16815260200190815260200160002060009054906101000a900460ff16600281111562001c045762001c0362002d1e565b5b0362001c165762001c15816200227c565b5b6000600460008373ffffffffffffffffffffffffffffffffffffffff1673ffffffffffffffffffffffffffffffffffffffff16815260200190815260200160002060006101000a81548160ff0219169083600281111562001c7c5762001c7b62002d1e565b5b02179055508073ffffffffffffffffffffffffffffffffffffffff167f7cf8632bdafeb52a87b2064a67d087446ede75307d351e7f4cc98e94d5bcddb760405160405180910390a250565b60607f000000000000000000000000000000000000000000000000000000000000000073ffffffffffffffffffffffffffffffffffffffff163373ffffffffffffffffffffffffffffffffffffffff161462001d5a576040517f08c379a000000000000000000000000000000000000000000000000000000000815260040162001d519062002ba9565b60405180910390fd5b600180548060200260200160405190810160405280929190818152602001828054801562001dde57602002820191906000526020600020905b8160009054906101000a900473ffffffffffffffffffffffffffffffffffffffff1673ffffffffffffffffffffffffffffffffffffffff168152602001906001019080831162001d93575b5050505050905090565b600081600560008573ffffffffffffffffffffffffffffffffffffffff1673ffffffffffffffffffffffffffffffffffffffff1681526020019081526020016000208054905080821062001e73576040517f08c379a000000000000000000000000000000000000000000000000000000000815260040162001e6a9062002ef3565b60405180910390fd5b600560008673ffffffffffffffffffffffffffffffffffffffff1673ffffffffffffffffffffffffffffffffffffffff168152602001908152602001600020848154811062001ec75762001ec662002f15565b5b90600052602060002001549250505092915050565b600060028081111562001ef45762001ef362002d1e565b5b600460008473ffffffffffffffffffffffffffffffffffffffff1673ffffffffffffffffffffffffffffffffffffffff16815260200190815260200160002060009054906101000a900460ff16600281111562001f565762001f5562002d1e565b5b149050919050565b600080848460405162001f71906200255f565b62001f7e92919062002fb6565b604051809103906000f08015801562001f9b573d6000803e3d6000fd5b50905060405180604001604052808473ffffffffffffffffffffffffffffffffffffffff1681526020018273ffffffffffffffffffffffffffffffffffffffff168152506003600087815260200190815260200160002060008201518160000160006101000a81548173ffffffffffffffffffffffffffffffffffffffff021916908373ffffffffffffffffffffffffffffffffffffffff16021790555060208201518160010160006101000a81548173ffffffffffffffffffffffffffffffffffffffff021916908373ffffffffffffffffffffffffffffffffffffffff1602179055509050506008859080600181540180825580915050600190039060005260206000200160009091909190915055600760008473ffffffffffffffffffffffffffffffffffffffff1673ffffffffffffffffffffffffffffffffffffffff16815260200190815260200160002060009054906101000a900460ff16620021ba576002839080600181540180825580915050600190039060005260206000200160009091909190916101000a81548173ffffffffffffffffffffffffffffffffffffffff021916908373ffffffffffffffffffffffffffffffffffffffff1602179055506001600760008573ffffffffffffffffffffffffffffffffffffffff1673ffffffffffffffffffffffffffffffffffffffff16815260200190815260200160002060006101000a81548160ff0219169083151502179055505b600560008473ffffffffffffffffffffffffffffffffffffffff1673ffffffffffffffffffffffffffffffffffffffff168152602001908152602001600020859080600181540180825580915050600190039060005260206000200160009091909190915055848373ffffffffffffffffffffffffffffffffffffffff167fc8e97c2f1b3ebe76aeef2bb679bcca3e5e5515fedd7c25a76b0929ad2b7c3ace8360405162002269919062002714565b60405180910390a3809150509392505050565b6001600281111562002293576200229262002d1e565b5b600460008373ffffffffffffffffffffffffffffffffffffffff1673ffffffffffffffffffffffffffffffffffffffff16815260200190815260200160002060009054906101000a900460ff166002811115620022f557620022f462002d1e565b5b1462002338576040517f08c379a00000000000000000000000000000000000000000000000000000000081526004016200232f9062003033565b60405180910390fd5b6000600660008373ffffffffffffffffffffffffffffffffffffffff1673ffffffffffffffffffffffffffffffffffffffff16815260200190815260200160002054905060006001808054905062002391919062003084565b90508082146200248757600060018281548110620023b457620023b362002f15565b5b9060005260206000200160009054906101000a900473ffffffffffffffffffffffffffffffffffffffff1690508060018481548110620023f957620023f862002f15565b5b9060005260206000200160006101000a81548173ffffffffffffffffffffffffffffffffffffffff021916908373ffffffffffffffffffffffffffffffffffffffff16021790555082600660008373ffffffffffffffffffffffffffffffffffffffff1673ffffffffffffffffffffffffffffffffffffffff16815260200190815260200160002081905550505b60018054806200249c576200249b620030bf565b5b6001900381819060005260206000200160006101000a81549073ffffffffffffffffffffffffffffffffffffffff02191690559055600660008473ffffffffffffffffffffffffffffffffffffffff1673ffffffffffffffffffffffffffffffffffffffff16815260200190815260200160002060009055505050565b6040518060400160405280600073ffffffffffffffffffffffffffffffffffffffff168152602001600073ffffffffffffffffffffffffffffffffffffffff1681525090565b610e4480620030ef83390190565b600080fd5b6000819050919050565b620025878162002572565b81146200259357600080fd5b50565b600081359050620025a7816200257c565b92915050565b6000819050919050565b620025c281620025ad565b8114620025ce57600080fd5b50565b600081359050620025e281620025b7565b92915050565b600073ffffffffffffffffffffffffffffffffffffffff82169050919050565b60006200261582620025e8565b9050919050565b620026278162002608565b81146200263357600080fd5b50565b60008135905062002647816200261c565b92915050565b6000806000606084860312156200266957620026686200256d565b5b6000620026798682870162002596565b93505060206200268c86828701620025d1565b92505060406200269f8682870162002636565b9150509250925092565b6000819050919050565b6000620026d4620026ce620026c884620025e8565b620026a9565b620025e8565b9050919050565b6000620026e882620026b3565b9050919050565b6000620026fc82620026db565b9050919050565b6200270e81620026ef565b82525050565b60006020820190506200272b600083018462002703565b92915050565b600080604083850312156200274b576200274a6200256d565b5b60006200275b8582860162002596565b92505060206200276e85828601620025d1565b9150509250929050565b600080604083850312156200279257620027916200256d565b5b6000620027a28582860162002596565b9250506020620027b58582860162002596565b9150509250929050565b6000620027cc82620026db565b9050919050565b620027de81620027bf565b82525050565b6000602082019050620027fb6000830184620027d3565b92915050565b6000602082840312156200281a57620028196200256d565b5b60006200282a8482850162002596565b91505092915050565b6200283e8162002608565b82525050565b60006040820190506200285b600083018562002833565b6200286a602083018462002833565b9392505050565b6000602082840312156200288a57620028896200256d565b5b60006200289a84828501620025d1565b91505092915050565b6000602082019050620028ba600083018462002833565b92915050565b600060208284031215620028d957620028d86200256d565b5b6000620028e98482850162002636565b91505092915050565b620028fd81620025ad565b82525050565b60006020820190506200291a6000830184620028f2565b92915050565b60008115159050919050565b620029378162002920565b82525050565b60006020820190506200295460008301846200292c565b92915050565b620029658162002608565b82525050565b6200297681620026ef565b82525050565b6040820160008201516200299460008501826200295a565b506020820151620029a960208501826200296b565b50505050565b6000604082019050620029c660008301846200297c565b92915050565b600081519050919050565b600082825260208201905092915050565b6000819050602082019050919050565b600062002a0683836200295a565b60208301905092915050565b6000602082019050919050565b600062002a2c82620029cc565b62002a388185620029d7565b935062002a4583620029e8565b8060005b8381101562002a7c57815162002a608882620029f8565b975062002a6d8362002a12565b92505060018101905062002a49565b5085935050505092915050565b6000602082019050818103600083015262002aa5818462002a1f565b905092915050565b6000806040838503121562002ac75762002ac66200256d565b5b600062002ad78582860162002636565b925050602062002aea85828601620025d1565b9150509250929050565b62002aff8162002572565b82525050565b600060208201905062002b1c600083018462002af4565b92915050565b600082825260208201905092915050565b7f536f6c6f20656c2063726561646f72207075656465206861636572206573746160008201527f206c6c616d616461000000000000000000000000000000000000000000000000602082015250565b600062002b9160288362002b22565b915062002b9e8262002b33565b604082019050919050565b6000602082019050818103600083015262002bc48162002b82565b9050919050565b7f456c206c6c616d61646f20796120657869737465000000000000000000000000600082015250565b600062002c0360148362002b22565b915062002c108262002bcb565b602082019050919050565b6000602082019050818103600083015262002c368162002bf4565b9050919050565b7f4c6c616d61646f73526567697374726172206e6f2065737461626c656369646f600082015250565b600062002c7560208362002b22565b915062002c828262002c3d565b602082019050919050565b6000602082019050818103600083015262002ca88162002c66565b9050919050565b6000819050919050565b62002cce62002cc88262002572565b62002caf565b82525050565b600062002ce2828462002cb9565b60208201915081905092915050565b600060408201905062002d08600083018562002af4565b62002d17602083018462002833565b9392505050565b7f4e487b7100000000000000000000000000000000000000000000000000000000600052602160045260246000fd5b7f5961207365206861207265676973747261646f00000000000000000000000000600082015250565b600062002d8560138362002b22565b915062002d928262002d4d565b602082019050919050565b6000602082019050818103600083015262002db88162002d76565b9050919050565b7f4e6f206175746f72697a61646f00000000000000000000000000000000000000600082015250565b600062002df7600d8362002b22565b915062002e048262002dbf565b602082019050919050565b6000602082019050818103600083015262002e2a8162002de8565b9050919050565b7f456c206c6c616d61646f206e6f20657869737465000000000000000000000000600082015250565b600062002e6960148362002b22565b915062002e768262002e31565b602082019050919050565b6000602082019050818103600083015262002e9c8162002e5a565b9050919050565b7f496e646963652066756572612064652072616e676f0000000000000000000000600082015250565b600062002edb60158362002b22565b915062002ee88262002ea3565b602082019050919050565b6000602082019050818103600083015262002f0e8162002ecc565b9050919050565b7f4e487b7100000000000000000000000000000000000000000000000000000000600052603260045260246000fd5b7f4c6c616d61646f735265676973747261722079612065737461626c656369646f600082015250565b600062002f7c60208362002b22565b915062002f898262002f44565b602082019050919050565b6000602082019050818103600083015262002faf8162002f6d565b9050919050565b600060408201905062002fcd600083018562002af4565b62002fdc6020830184620028f2565b9392505050565b7f4e6f20657374612070656e6469656e7465000000000000000000000000000000600082015250565b60006200301b60118362002b22565b9150620030288262002fe3565b602082019050919050565b600060208201905081810360008301526200304e816200300c565b9050919050565b7f4e487b7100000000000000000000000000000000000000000000000000000000600052601160045260246000fd5b60006200309182620025ad565b91506200309e83620025ad565b9250828203905081811115620030b957620030b862003055565b5b92915050565b7f4e487b7100000000000000000000000000000000000000000000000000000000600052603160045260246000fdfe60e06040523480156200001157600080fd5b5060405162000e4438038062000e44833981810160405281019062000037919062000143565b8042106200007c576040517f08c379a0000000000000000000000000000000000000000000000000000000008152600401620000739062000211565b60405180910390fd5b81608081815250508060a081815250503373ffffffffffffffffffffffffffffffffffffffff1660c08173ffffffffffffffffffffffffffffffffffffffff1681525050505062000233565b600080fd5b6000819050919050565b620000e281620000cd565b8114620000ee57600080fd5b50565b6000815190506200010281620000d7565b92915050565b6000819050919050565b6200011d8162000108565b81146200012957600080fd5b50565b6000815190506200013d8162000112565b92915050565b600080604083850312156200015d576200015c620000c8565b5b60006200016d85828601620000f1565b925050602062000180858286016200012c565b9150509250929050565b600082825260208201905092915050565b7f456c20636965727265206465206c6120636f6e766f6361746f726961206e6f2060008201527f707565646520657374617220656e20656c2070617361646f0000000000000000602082015250565b6000620001f96038836200018a565b915062000206826200019b565b604082019050919050565b600060208201905081810360008301526200022c81620001ea565b9050919050565b60805160a05160c051610bcc620002786000396000818161024b0152610418015260008181610292015281816102b801526104a6015260006105730152610bcc6000f3fe608060405234801561001057600080fd5b50600436106100935760003560e01c80635dcfbcc2116100665780635dcfbcc2146101345780636424e719146101505780639c9cbf9c14610180578063d955cb001461019c578063da35c664146101ba57610093565b8063013cf08b1461009857806302d05d3f146100c85780633696b787146100e65780634b6753bc14610116575b600080fd5b6100b260048036038101906100ad9190610733565b6101d8565b6040516100bf9190610779565b60405180910390f35b6100d0610247565b6040516100dd91906107d5565b60405180910390f35b61010060048036038101906100fb919061081c565b61026f565b60405161010d9190610858565b60405180910390f35b61011e61028e565b60405161012b9190610858565b60405180910390f35b61014e6004803603810190610149919061081c565b6102b6565b005b61016a6004803603810190610165919061081c565b610380565b60405161017791906108d3565b60405180910390f35b61019a6004803603810190610195919061091a565b610416565b005b6101a461056f565b6040516101b19190610779565b60405180910390f35b6101c2610597565b6040516101cf9190610858565b60405180910390f35b60006001805490508210610221576040517f08c379a0000000000000000000000000000000000000000000000000000000008152600401610218906109b7565b60405180910390fd5b60018281548110610235576102346109d7565b5b90600052602060002001549050919050565b60007f0000000000000000000000000000000000000000000000000000000000000000905090565b6000806000838152602001908152602001600020600201549050919050565b60007f0000000000000000000000000000000000000000000000000000000000000000905090565b7f0000000000000000000000000000000000000000000000000000000000000000421115610319576040517f08c379a000000000000000000000000000000000000000000000000000000000815260040161031090610a52565b60405180910390fd5b8060008060008381526020019081526020016000206002015414610372576040517f08c379a000000000000000000000000000000000000000000000000000000000815260040161036990610ae4565b60405180910390fd5b61037c82336105a4565b5050565b6103886106c1565b6000808381526020019081526020016000206040518060600160405290816000820160009054906101000a900473ffffffffffffffffffffffffffffffffffffffff1673ffffffffffffffffffffffffffffffffffffffff1673ffffffffffffffffffffffffffffffffffffffff168152602001600182015481526020016002820154815250509050919050565b7f000000000000000000000000000000000000000000000000000000000000000073ffffffffffffffffffffffffffffffffffffffff163373ffffffffffffffffffffffffffffffffffffffff16146104a4576040517f08c379a000000000000000000000000000000000000000000000000000000000815260040161049b90610b76565b60405180910390fd5b7f0000000000000000000000000000000000000000000000000000000000000000421115610507576040517f08c379a00000000000000000000000000000000000000000000000000000000081526004016104fe90610a52565b60405180910390fd5b8160008060008381526020019081526020016000206002015414610560576040517f08c379a000000000000000000000000000000000000000000000000000000000815260040161055790610ae4565b60405180910390fd5b61056a83836105a4565b505050565b60007f0000000000000000000000000000000000000000000000000000000000000000905090565b6000600180549050905090565b60405180606001604052808273ffffffffffffffffffffffffffffffffffffffff1681526020014381526020014281525060008084815260200190815260200160002060008201518160000160006101000a81548173ffffffffffffffffffffffffffffffffffffffff021916908373ffffffffffffffffffffffffffffffffffffffff160217905550602082015181600101556040820151816002015590505060018290806001815401808255809150506001900390600052602060002001600090919091909150558073ffffffffffffffffffffffffffffffffffffffff16827f1a26f048630a7f2b9229c19a042fe677bbbad402ecb8f3fa77f9c4a3f98cae94436040516106b59190610858565b60405180910390a35050565b6040518060600160405280600073ffffffffffffffffffffffffffffffffffffffff16815260200160008152602001600081525090565b600080fd5b6000819050919050565b610710816106fd565b811461071b57600080fd5b50565b60008135905061072d81610707565b92915050565b600060208284031215610749576107486106f8565b5b60006107578482850161071e565b91505092915050565b6000819050919050565b61077381610760565b82525050565b600060208201905061078e600083018461076a565b92915050565b600073ffffffffffffffffffffffffffffffffffffffff82169050919050565b60006107bf82610794565b9050919050565b6107cf816107b4565b82525050565b60006020820190506107ea60008301846107c6565b92915050565b6107f981610760565b811461080457600080fd5b50565b600081359050610816816107f0565b92915050565b600060208284031215610832576108316106f8565b5b600061084084828501610807565b91505092915050565b610852816106fd565b82525050565b600060208201905061086d6000830184610849565b92915050565b61087c816107b4565b82525050565b61088b816106fd565b82525050565b6060820160008201516108a76000850182610873565b5060208201516108ba6020850182610882565b5060408201516108cd6040850182610882565b50505050565b60006060820190506108e86000830184610891565b92915050565b6108f7816107b4565b811461090257600080fd5b50565b600081359050610914816108ee565b92915050565b60008060408385031215610931576109306106f8565b5b600061093f85828601610807565b925050602061095085828601610905565b9150509250929050565b600082825260208201905092915050565b7f496e646578206f7574206f6620626f756e647300000000000000000000000000600082015250565b60006109a160138361095a565b91506109ac8261096b565b602082019050919050565b600060208201905081810360008301526109d081610994565b9050919050565b7f4e487b7100000000000000000000000000000000000000000000000000000000600052603260045260246000fd5b7f436f6e766f6361746f7269612063657272616461000000000000000000000000600082015250565b6000610a3c60148361095a565b9150610a4782610a06565b602082019050919050565b60006020820190508181036000830152610a6b81610a2f565b9050919050565b7f4c612070726f707565737461207961206861207369646f20726567697374726160008201527f6461000000000000000000000000000000000000000000000000000000000000602082015250565b6000610ace60228361095a565b9150610ad982610a72565b604082019050919050565b60006020820190508181036000830152610afd81610ac1565b9050919050565b7f536f6c6f20656c2063726561646f72207075656465206861636572206573746160008201527f206c6c616d616461000000000000000000000000000000000000000000000000602082015250565b6000610b6060288361095a565b9150610b6b82610b04565b604082019050919050565b60006020820190508181036000830152610b8f81610b53565b905091905056fea2646970667358221220a09ec3cfef1361722ad37ce0919844e622d81aa4d069d68b0e6c293c5657918064736f6c63430008130033a26469706673582212201d5c117eaae9509b403163b91a9ded9b5251433781cd28f39b517119abf312f564736f6c63430008130033",
  "immutableReferences": {
    "289": [
      {
        "length": 32,
        "start": 1320
      },
      {
        "length": 32,
        "start": 4041
      },
      {
        "length": 32,
        "start": 4339
      },
      {
        "length": 32,
        "start": 4761
      },
      {
        "length": 32,
        "start": 5098
      },
      {
        "length": 32,
        "start": 6379
      },
      {
        "length": 32,
        "start": 6752
      },
      {
        "length": 32,
        "start": 6908
      },
      {
        "length": 32,
        "start": 7371
      }
    ]
  },
  "source": "// SPDX-License-Identifier: MIT\npragma solidity ^0.8.19;\n\nimport \"./CFP.sol\";\nimport \"./LlamadosRegistrar.sol\";\n\ncontract CFPFactory {\n    // Eventos con parmetros indexados para mejor filtrado\n    event CFPCreated(address indexed creator, bytes32 indexed callId, CFP cfp);\n\n    // Eventos que se emiten al registrar, autorizar y desautorizar cuentas\n    event AccountRegistered(address indexed account);\n    event AccountAuthorized(address indexed account);\n    event AccountUnauthorized(address indexed account);\n\n    // Estructuras de datos\n    struct CallForProposals {\n        address creator;\n        CFP cfp;\n    }\n\n    // Enum que representa el estado de una cuenta\n    enum AccountStatus {\n        NotRegistered,\n        Pending,\n        Authorized\n    }\n\n    // Variables de estado\n    address private immutable _owner;\n    LlamadosRegistrar public llamadosRegistrar;\n    address[] private _pending;\n    address[] private _creators;\n    mapping(bytes32 => CallForProposals) private _calls;\n    mapping(address => AccountStatus) private _accounts;\n    mapping(address => bytes32[]) private _callsCreatedBy;\n    mapping(address => uint256) private _pendingIndex;\n    mapping(address => bool) private _isCreatorInList;\n    bytes32[] private _callIds;\n\n    // Modifiers\n    modifier onlyOwner() {\n        require(\n            msg.sender == _owner,\n            \"Solo el creador puede hacer esta llamada\"\n        );\n        _;\n    }\n\n    modifier notRegistered(address account) {\n        require(_accounts[account] == AccountStatus.NotRegistered, \"Ya se ha registrado\");\n        _;\n    }\n\n    modifier onlyAuthorized(address account) {\n        require(_accounts[account] == AccountStatus.Authorized, \"No autorizado\");\n        _;\n    }\n\n    modifier validCallId(bytes32 callId) {\n        require(_calls[callId].creator == address(0), \"El llamado ya existe\");\n        _;\n    }\n\n    modifier callExists(bytes32 callId) {\n        require(_calls[callId].creator != address(0), \"El llamado no existe\");\n        _;\n    }\n\n    modifier validIndex(uint index, uint length) {\n        require(index < length, \"Indice fuera de rango\");\n        _;\n    }\n\n    constructor() {\n        _owner = msg.sender;\n    }\n\n    /**\n     * Establece el LlamadosRegistrar despus del deploy\n     * Solo puede ser llamado por el owner\n     */\n    function setLlamadosRegistrar(address _llamadosRegistrar) external onlyOwner {\n        require(address(llamadosRegistrar) == address(0), \"LlamadosRegistrar ya establecido\");\n        llamadosRegistrar = LlamadosRegistrar(_llamadosRegistrar);\n    }\n\n    // Direccin del dueo de la factora\n    function owner() public view returns (address) {\n        return _owner;\n    }\n\n    // Devuelve el llamado asociado con un callId\n    function calls(\n        bytes32 callId\n    ) public view returns (CallForProposals memory) {\n        return _calls[callId];\n    }\n\n    // Devuelve la direccin de un creador de la lista de creadores\n    function creators(\n        uint index\n    ) public view validIndex(index, _creators.length) returns (address) {\n        return _creators[index];\n    }\n\n    /** Crea un llamado, con un identificador y un tiempo de cierre\n     *  Si ya existe un llamado con ese identificador, revierte con el mensaje de error \"El llamado ya existe\"\n     *  Si el emisor no est autorizado a crear llamados, revierte con el mensaje \"No autorizado\"\n     */\n    function create(\n        bytes32 callId,\n        uint256 timestamp\n    ) public onlyAuthorized(msg.sender) validCallId(callId) returns (CFP) {\n        return _createCFP(callId, timestamp, msg.sender);\n    }\n\n    /**\n     * Crea un llamado con registro ENS\n     * Solo puede ser invocada por una cuenta autorizada\n     */\n    function createWithENS(\n        bytes32 callId,\n        uint256 timestamp\n    ) public onlyAuthorized(msg.sender) validCallId(callId) returns (CFP) {\n        require(address(llamadosRegistrar) != address(0), \"LlamadosRegistrar no establecido\");\n        \n        CFP newCFP = _createCFP(callId, timestamp, msg.sender);\n        \n        // Registrar en ENS usando el label hash del callId\n        bytes32 labelHash = keccak256(abi.encodePacked(callId));\n        llamadosRegistrar.register(labelHash, msg.sender);\n        \n        return newCFP;\n    }\n\n    /**\n     * Crea un llamado, estableciendo a `creator` como creador del mismo.\n     * Slo puede ser invocada por el dueo de la factora.\n     * Se comporta en todos los dems aspectos como `createFor(bytes32 callId, uint timestamp)`\n     */\n    function createFor(\n        bytes32 callId,\n        uint timestamp,\n        address creator\n    )\n        public\n        onlyOwner\n        validCallId(callId)\n        returns (CFP)\n    {\n        return _createCFP(callId, timestamp, creator);\n    }\n\n    /**\n     * Crea un llamado con registro ENS para un creador especfico\n     * Solo puede ser invocada por el dueo de la factora\n     */\n    function createForWithENS(\n        bytes32 callId,\n        uint timestamp,\n        address creator\n    )\n        public\n        onlyOwner\n        validCallId(callId)\n        returns (CFP)\n    {\n        require(address(llamadosRegistrar) != address(0), \"LlamadosRegistrar no establecido\");\n        \n        CFP newCFP = _createCFP(callId, timestamp, creator);\n        \n        // Registrar en ENS usando el label hash del callId\n        bytes32 labelHash = keccak256(abi.encodePacked(callId));\n        llamadosRegistrar.register(labelHash, creator);\n        \n        return newCFP;\n    }\n\n    // Devuelve la cantidad de cuentas que han creado llamados.\n    function creatorsCount() public view returns (uint256) {\n        return _creators.length;\n    }\n\n    /// Devuelve el identificador del llamado que est en la posicin `index` de la lista de llamados creados por `creator`\n    function createdBy(\n        address creator,\n        uint index\n    )\n        public\n        view\n        validIndex(index, _callsCreatedBy[creator].length)\n        returns (bytes32)\n    {\n        return _callsCreatedBy[creator][index];\n    }\n\n    // Devuelve la cantidad de llamados creados por `creator`\n    function createdByCount(address creator) public view returns (uint256) {\n        return _callsCreatedBy[creator].length;\n    }\n\n    // Devuelve los datos de un llamado especfico\n    function getCallData(bytes32 callId) public view callExists(callId) returns (address creator, address cfpAddress) {\n        CallForProposals memory call = _calls[callId];\n        return (call.creator, address(call.cfp));\n    }\n\n    // Funcion privada para crear un nuevo llamado\n    // Se encarga de crear el contrato CFP y de registrar el llamado en la lista de llamados\n    // creados por el emisor del mensaje.\n    // Si el creador no est en la lista de creadores, lo agrega.\n    function _createCFP(\n        bytes32 callId,\n        uint timestamp,\n        address creator\n    ) private returns (CFP) {\n        CFP newCFP = new CFP(callId, timestamp);\n        _calls[callId] = CallForProposals(creator, newCFP);\n        _callIds.push(callId);\n\n        if (!_isCreatorInList[creator]) {\n            _creators.push(creator);\n            _isCreatorInList[creator] = true;\n        }\n        _callsCreatedBy[creator].push(callId);\n\n        emit CFPCreated(creator, callId, newCFP);\n        return newCFP;\n    }\n\n    /** Permite a un usuario registrar una propuesta, para un llamado con identificador `callId`.\n     *  Si el llamado no existe, revierte con el mensaje  \"El llamado no existe\".\n     *  Registra la propuesta en el llamado asociado con `callId` y pasa como creador la direccin del emisor del mensaje.\n     */\n    function registerProposal(\n        bytes32 callId,\n        bytes32 proposal\n    ) public callExists(callId) {\n        _calls[callId].cfp.registerProposalFor(proposal, msg.sender);\n    }\n\n    /** Permite que una cuenta se registre para poder crear llamados.\n     *  El registro queda en estado pendiente hasta que el dueo de la factora lo autorice.\n     *  Si ya se ha registrado, revierte con el mensaje \"Ya se ha registrado\"\n     */\n    function register() public notRegistered(msg.sender) {\n        _accounts[msg.sender] = AccountStatus.Pending;\n        _pendingIndex[msg.sender] = _pending.length;\n        _pending.push(msg.sender);\n        emit AccountRegistered(msg.sender);\n    }\n\n    /** Autoriza a una cuenta a crear llamados.\n     *  Slo puede ser ejecutada por el dueo de la factora.\n     *  En caso contrario revierte con el mensaje \"Solo el creador puede hacer esta llamada\".\n     *  Si la cuenta se ha registrado y est pendiente, la quita de la lista de pendientes.\n     */\n    function authorize(address creator) public onlyOwner {\n        if (_accounts[creator] == AccountStatus.NotRegistered) {\n            _accounts[creator] = AccountStatus.Authorized;\n        } else if (_accounts[creator] == AccountStatus.Pending) {\n            removePending(creator);\n            _accounts[creator] = AccountStatus.Authorized;\n        }\n        emit AccountAuthorized(creator);\n    }\n\n    /** Quita la autorizacin de una cuenta para crear llamados.\n     *  Slo puede ser ejecutada por el dueo de la factora.\n     *  En caso contrario revierte con el mensaje \"Solo el creador puede hacer esta llamada\".\n     *  Si la cuenta se ha registrado y est pendiente, la quita de la lista de pendientes.\n     */\n    function unauthorize(address creator) public onlyOwner {\n        if (_accounts[creator] == AccountStatus.Pending) {\n            removePending(creator);\n        }\n        _accounts[creator] = AccountStatus.NotRegistered;\n        emit AccountUnauthorized(creator);\n    }\n\n    // Devuelve la lista de todas las registraciones pendientes.\n    // Slo puede ser ejecutada por el dueo de la factora\n    // En caso contrario revierte con el mensaje \"Solo el creador puede hacer esta llamada\".\n    function getAllPending() public view onlyOwner returns (address[] memory) {\n        return _pending;\n    }\n\n    // Devuelve la registracin pendiente con ndice `index`\n    // Slo puede ser ejecutada por el dueo de la factora\n    // En caso contrario revierte con el mensaje \"Solo el creador puede hacer esta llamada\".\n    function getPending(\n        uint index\n    )\n        public\n        view\n        onlyOwner\n        validIndex(index, _pending.length)\n        returns (address)\n    {\n        return _pending[index];\n    }\n\n    // Devuelve la cantidad de registraciones pendientes.\n    // Slo puede ser ejecutada por el dueo de la factora\n    // En caso contrario revierte con el mensaje \"Solo el creador puede hacer esta llamada\".\n    function pendingCount() public view onlyOwner returns (uint256) {\n        return _pending.length;\n    }\n\n    // Remueve una cuenta de la lista de pendientes.\n    function removePending(address creator) private {\n        require(_accounts[creator] == AccountStatus.Pending, \"No esta pendiente\");\n\n        uint index = _pendingIndex[creator];\n        uint lastIndex = _pending.length - 1;\n\n        if (index != lastIndex) {\n            address last = _pending[lastIndex];\n            _pending[index] = last;\n            _pendingIndex[last] = index;\n        }\n\n        _pending.pop();\n        delete _pendingIndex[creator];\n    }\n\n    // Devuelve verdadero si una cuenta se ha registrado, tanto si su estado es pendiente como si ya se la ha autorizado.\n    function isRegistered(address account) public view returns (bool) {\n        return _accounts[account] != AccountStatus.NotRegistered;\n    }\n\n    // Devuelve verdadero si una cuenta est autorizada a crear llamados.\n    function isAuthorized(address account) public view returns (bool) {\n        return _accounts[account] == AccountStatus.Authorized;\n    }\n}\n",
  "sourcePath": "E:\\final-blockchain\\blockchain-final-2025\\contracts\\contracts\\CFPFactory.sol",
  "compiler": {
    "name": "solc",
    "version": "0.8.19+commit.7dd6d404.Emscripten.clang"
  },
  "schemaVersion": "3.4.16",
  "updatedAt": "2025-07-22T01:35:55.077Z",
  "networkType": "ethereum",
  "devdoc": {
    "kind": "dev",
    "methods": {},
    "version": 1
  },
  "userdoc": {
    "kind": "user",
    "methods": {
      "authorize(address)": {
        "notice": "Autoriza a una cuenta a crear llamados.  Slo puede ser ejecutada por el dueo de la factora.  En caso contrario revierte con el mensaje \"Solo el creador puede hacer esta llamada\".  Si la cuenta se ha registrado y est pendiente, la quita de la lista de pendientes."
      },
      "create(bytes32,uint256)": {
        "notice": "Crea un llamado, con un identificador y un tiempo de cierre  Si ya existe un llamado con ese identificador, revierte con el mensaje de error \"El llamado ya existe\"  Si el emisor no est autorizado a crear llamados, revierte con el mensaje \"No autorizado\""
      },
      "createFor(bytes32,uint256,address)": {
        "notice": "Crea un llamado, estableciendo a `creator` como creador del mismo. Slo puede ser invocada por el dueo de la factora. Se comporta en todos los dems aspectos como `createFor(bytes32 callId, uint timestamp)`"
      },
      "createForWithENS(bytes32,uint256,address)": {
        "notice": "Crea un llamado con registro ENS para un creador especfico Solo puede ser invocada por el dueo de la factora"
      },
      "createWithENS(bytes32,uint256)": {
        "notice": "Crea un llamado con registro ENS Solo puede ser invocada por una cuenta autorizada"
      },
      "createdBy(address,uint256)": {
        "notice": "Devuelve el identificador del llamado que est en la posicin `index` de la lista de llamados creados por `creator`"
      },
      "register()": {
        "notice": "Permite que una cuenta se registre para poder crear llamados.  El registro queda en estado pendiente hasta que el dueo de la factora lo autorice.  Si ya se ha registrado, revierte con el mensaje \"Ya se ha registrado\""
      },
      "registerProposal(bytes32,bytes32)": {
        "notice": "Permite a un usuario registrar una propuesta, para un llamado con identificador `callId`.  Si el llamado no existe, revierte con el mensaje  \"El llamado no existe\".  Registra la propuesta en el llamado asociado con `callId` y pasa como creador la direccin del emisor del mensaje."
      },
      "setLlamadosRegistrar(address)": {
        "notice": "Establece el LlamadosRegistrar despus del deploy Solo puede ser llamado por el owner"
      },
      "unauthorize(address)": {
        "notice": "Quita la autorizacin de una cuenta para crear llamados.  Slo puede ser ejecutada por el dueo de la factora.  En caso contrario revierte con el mensaje \"Solo el creador puede hacer esta llamada\".  Si la cuenta se ha registrado y est pendiente, la quita de la lista de pendientes."
      }
    },
    "version": 1
  }
}